{
  "contractName": "DocumentRegistry",
  "abi": [
    {
      "anonymous": false,
      "inputs": [
        {
          "indexed": true,
          "internalType": "uint256",
          "name": "documentId",
          "type": "uint256"
        },
        {
          "indexed": false,
          "internalType": "string",
          "name": "name",
          "type": "string"
        },
        {
          "indexed": false,
          "internalType": "address",
          "name": "owner",
          "type": "address"
        }
      ],
      "name": "DocumentAdded",
      "type": "event"
    },
    {
      "inputs": [
        {
          "internalType": "uint256",
          "name": "",
          "type": "uint256"
        }
      ],
      "name": "documents",
      "outputs": [
        {
          "internalType": "bytes",
          "name": "pdfData",
          "type": "bytes"
        },
        {
          "internalType": "string",
          "name": "name",
          "type": "string"
        },
        {
          "internalType": "address",
          "name": "owner",
          "type": "address"
        },
        {
          "internalType": "uint256",
          "name": "timestamp",
          "type": "uint256"
        }
      ],
      "stateMutability": "view",
      "type": "function"
    },
    {
      "inputs": [
        {
          "internalType": "bytes",
          "name": "pdfData",
          "type": "bytes"
        },
        {
          "internalType": "string",
          "name": "name",
          "type": "string"
        }
      ],
      "name": "addDocument",
      "outputs": [],
      "stateMutability": "nonpayable",
      "type": "function"
    },
    {
      "inputs": [
        {
          "internalType": "uint256",
          "name": "documentId",
          "type": "uint256"
        }
      ],
      "name": "getDocument",
      "outputs": [
        {
          "internalType": "bytes",
          "name": "pdfData",
          "type": "bytes"
        },
        {
          "internalType": "string",
          "name": "name",
          "type": "string"
        },
        {
          "internalType": "address",
          "name": "owner",
          "type": "address"
        },
        {
          "internalType": "uint256",
          "name": "timestamp",
          "type": "uint256"
        }
      ],
      "stateMutability": "view",
      "type": "function"
    }
  ],
  "bytecode": "0x608060405234801561000f575f80fd5b50610ee88061001d5f395ff3fe608060405234801561000f575f80fd5b506004361061003f575f3560e01c80633f9b250a1461004357806365fb230f14610076578063c2ed2b0514610092575b5f80fd5b61005d600480360381019061005891906105b9565b6100c5565b60405161006d949392919061070e565b60405180910390f35b610090600480360381019061008b9190610929565b610286565b005b6100ac60048036038101906100a791906105b9565b6103d4565b6040516100bc949392919061070e565b60405180910390f35b6060805f805f805490508510610110576040517f08c379a0000000000000000000000000000000000000000000000000000000008152600401610107906109e9565b60405180910390fd5b5f80868154811061012457610123610a07565b5b905f5260205f2090600402019050805f0181600101826002015f9054906101000a900473ffffffffffffffffffffffffffffffffffffffff16836003015483805461016e90610a61565b80601f016020809104026020016040519081016040528092919081815260200182805461019a90610a61565b80156101e55780601f106101bc576101008083540402835291602001916101e5565b820191905f5260205f20905b8154815290600101906020018083116101c857829003601f168201915b505050505093508280546101f890610a61565b80601f016020809104026020016040519081016040528092919081815260200182805461022490610a61565b801561026f5780601f106102465761010080835404028352916020019161026f565b820191905f5260205f20905b81548152906001019060200180831161025257829003601f168201915b505050505092509450945094509450509193509193565b61028e610539565b82815f018190525081816020018190525033816040019073ffffffffffffffffffffffffffffffffffffffff16908173ffffffffffffffffffffffffffffffffffffffff1681525050428160600181815250505f81908060018154018082558091505060019003905f5260205f2090600402015f909190919091505f820151815f01908161031c9190610c2e565b5060208201518160010190816103329190610d55565b506040820151816002015f6101000a81548173ffffffffffffffffffffffffffffffffffffffff021916908373ffffffffffffffffffffffffffffffffffffffff16021790555060608201518160030155505060015f805490506103969190610e51565b7f88c1bf6c8a37373790f9334705867752debfebb52542aba8902364efb9ebc9b683336040516103c7929190610e84565b60405180910390a2505050565b5f81815481106103e2575f80fd5b905f5260205f2090600402015f91509050805f01805461040190610a61565b80601f016020809104026020016040519081016040528092919081815260200182805461042d90610a61565b80156104785780601f1061044f57610100808354040283529160200191610478565b820191905f5260205f20905b81548152906001019060200180831161045b57829003601f168201915b50505050509080600101805461048d90610a61565b80601f01602080910402602001604051908101604052809291908181526020018280546104b990610a61565b80156105045780601f106104db57610100808354040283529160200191610504565b820191905f5260205f20905b8154815290600101906020018083116104e757829003601f168201915b505050505090806002015f9054906101000a900473ffffffffffffffffffffffffffffffffffffffff16908060030154905084565b604051806080016040528060608152602001606081526020015f73ffffffffffffffffffffffffffffffffffffffff1681526020015f81525090565b5f604051905090565b5f80fd5b5f80fd5b5f819050919050565b61059881610586565b81146105a2575f80fd5b50565b5f813590506105b38161058f565b92915050565b5f602082840312156105ce576105cd61057e565b5b5f6105db848285016105a5565b91505092915050565b5f81519050919050565b5f82825260208201905092915050565b5f5b8381101561061b578082015181840152602081019050610600565b5f8484015250505050565b5f601f19601f8301169050919050565b5f610640826105e4565b61064a81856105ee565b935061065a8185602086016105fe565b61066381610626565b840191505092915050565b5f81519050919050565b5f82825260208201905092915050565b5f6106928261066e565b61069c8185610678565b93506106ac8185602086016105fe565b6106b581610626565b840191505092915050565b5f73ffffffffffffffffffffffffffffffffffffffff82169050919050565b5f6106e9826106c0565b9050919050565b6106f9816106df565b82525050565b61070881610586565b82525050565b5f6080820190508181035f8301526107268187610636565b9050818103602083015261073a8186610688565b905061074960408301856106f0565b61075660608301846106ff565b95945050505050565b5f80fd5b5f80fd5b7f4e487b71000000000000000000000000000000000000000000000000000000005f52604160045260245ffd5b61079d82610626565b810181811067ffffffffffffffff821117156107bc576107bb610767565b5b80604052505050565b5f6107ce610575565b90506107da8282610794565b919050565b5f67ffffffffffffffff8211156107f9576107f8610767565b5b61080282610626565b9050602081019050919050565b828183375f83830152505050565b5f61082f61082a846107df565b6107c5565b90508281526020810184848401111561084b5761084a610763565b5b61085684828561080f565b509392505050565b5f82601f8301126108725761087161075f565b5b813561088284826020860161081d565b91505092915050565b5f67ffffffffffffffff8211156108a5576108a4610767565b5b6108ae82610626565b9050602081019050919050565b5f6108cd6108c88461088b565b6107c5565b9050828152602081018484840111156108e9576108e8610763565b5b6108f484828561080f565b509392505050565b5f82601f8301126109105761090f61075f565b5b81356109208482602086016108bb565b91505092915050565b5f806040838503121561093f5761093e61057e565b5b5f83013567ffffffffffffffff81111561095c5761095b610582565b5b6109688582860161085e565b925050602083013567ffffffffffffffff81111561098957610988610582565b5b610995858286016108fc565b9150509250929050565b7f446f63756d656e7420646f6573206e6f742065786973740000000000000000005f82015250565b5f6109d3601783610678565b91506109de8261099f565b602082019050919050565b5f6020820190508181035f830152610a00816109c7565b9050919050565b7f4e487b71000000000000000000000000000000000000000000000000000000005f52603260045260245ffd5b7f4e487b71000000000000000000000000000000000000000000000000000000005f52602260045260245ffd5b5f6002820490506001821680610a7857607f821691505b602082108103610a8b57610a8a610a34565b5b50919050565b5f819050815f5260205f209050919050565b5f6020601f8301049050919050565b5f82821b905092915050565b5f60088302610aed7fffffffffffffffffffffffffffffffffffffffffffffffffffffffffffffffff82610ab2565b610af78683610ab2565b95508019841693508086168417925050509392505050565b5f819050919050565b5f610b32610b2d610b2884610586565b610b0f565b610586565b9050919050565b5f819050919050565b610b4b83610b18565b610b5f610b5782610b39565b848454610abe565b825550505050565b5f90565b610b73610b67565b610b7e818484610b42565b505050565b5b81811015610ba157610b965f82610b6b565b600181019050610b84565b5050565b601f821115610be657610bb781610a91565b610bc084610aa3565b81016020851015610bcf578190505b610be3610bdb85610aa3565b830182610b83565b50505b505050565b5f82821c905092915050565b5f610c065f1984600802610beb565b1980831691505092915050565b5f610c1e8383610bf7565b9150826002028217905092915050565b610c37826105e4565b67ffffffffffffffff811115610c5057610c4f610767565b5b610c5a8254610a61565b610c65828285610ba5565b5f60209050601f831160018114610c96575f8415610c84578287015190505b610c8e8582610c13565b865550610cf5565b601f198416610ca486610a91565b5f5b82811015610ccb57848901518255600182019150602085019450602081019050610ca6565b86831015610ce85784890151610ce4601f891682610bf7565b8355505b6001600288020188555050505b505050505050565b5f819050815f5260205f209050919050565b601f821115610d5057610d2181610cfd565b610d2a84610aa3565b81016020851015610d39578190505b610d4d610d4585610aa3565b830182610b83565b50505b505050565b610d5e8261066e565b67ffffffffffffffff811115610d7757610d76610767565b5b610d818254610a61565b610d8c828285610d0f565b5f60209050601f831160018114610dbd575f8415610dab578287015190505b610db58582610c13565b865550610e1c565b601f198416610dcb86610cfd565b5f5b82811015610df257848901518255600182019150602085019450602081019050610dcd565b86831015610e0f5784890151610e0b601f891682610bf7565b8355505b6001600288020188555050505b505050505050565b7f4e487b71000000000000000000000000000000000000000000000000000000005f52601160045260245ffd5b5f610e5b82610586565b9150610e6683610586565b9250828203905081811115610e7e57610e7d610e24565b5b92915050565b5f6040820190508181035f830152610e9c8185610688565b9050610eab60208301846106f0565b939250505056fea26469706673582212202e0c5976efb4f8150bdd8779a3d05b25a11678386448c6018e894ec6deddff4364736f6c63430008150033",
  "immutableReferences": {},
  "source": "pragma solidity ^0.8.0;\n\ncontract DocumentRegistry{\n    struct Document{\n        bytes pdfData;\n        string name;\n        address owner; \n        uint timestamp;\n    }\n\n    Document[] public documents;\n\n    event DocumentAdded(uint indexed documentId, string name, address owner);\n\n    function addDocument(bytes memory pdfData, string memory name) public {\n        Document memory newDocument;\n        newDocument.pdfData = pdfData;\n        newDocument.name = name;\n        newDocument.owner = msg.sender;\n        newDocument.timestamp = block.timestamp;\n\n        documents.push(newDocument);\n        emit DocumentAdded(documents.length -1, name, msg.sender);\n    }\n\n    function getDocument(uint documentId) public view returns(bytes memory pdfData, string memory name, address owner, uint timestamp){\n        require(documentId<documents.length, \"Document does not exist\");\n        Document storage doc = documents[documentId];\n        return (doc.pdfData, doc.name, doc.owner, doc.timestamp);\n    }   \n}",
  "sourcePath": "/Users/u21243/Documents/BlockChain/contracts/contato.sol",
  "compiler": {
    "name": "solc",
    "version": "0.8.21+commit.d9974bed.Emscripten.clang"
  },
  "schemaVersion": "3.4.16",
  "updatedAt": "2023-10-26T14:28:26.724Z",
  "devdoc": {
    "kind": "dev",
    "methods": {},
    "version": 1
  },
  "userdoc": {
    "kind": "user",
    "methods": {},
    "version": 1
  }
}